T000003000000000122000000000000000000000020210325
D001    2016232483          NAVARRO LLAZA BLANCA NELIDA             000001                                  0000000020200630010000000000385020162324830952020A2020 630       484     38.50    000000000000002021032516531301051010000000000000000000000000000                    0001AG341713  4916531370
D001    2016232483          NAVARRO LLAZA BLANCA NELIDA             000002                                  0000000020201215010000000000385020162324830952020A20201215       485     38.50    000000000000002021032516533301051010000000000000000000000000000                    0001AG341713  4916533382
D001    2016232483          NAVARRO LLAZA BLANCA NELIDA             000003                                  0000000020201220010000000000450020162324830952020A20201220       486     45.00    000000000000002021032516534701051010000000000000000000000000000                    0001AG341713  4916534804
