CC19301234567CXININ                                   20210331000000012000000000726894R                                                                                                                                                                   
DD1930123456700000123456789ARMANDO AVALOS                          PAGO JUNIO                    2020111720201231000000000120034000000000001200000001000 0000000000000000001                                                                            
DD1930123456700000008499456JULIO CORTEZ                            PAGO JULIO                    2020111720201231000000000023520000000000001200000001000 0000000000000000002                                                                            
DD1930123456700098765432123CORPORACION FUTURA                      DEUDA JUNIO                   2020111720201231000000000321340000000000001200000001000           FACT00123                                                                            
DD19301234567     KHFD5672JBODEGA NICOLAS                          REGULARIZACION                2020111720201231000000000132100000000000005000000001000           FACT00124                                                                            
DD19301234567    JULIORAMOSJULIO RAMOS HUARICHI                    CONSTRUCCION                  2020111720201231000000000002300000000000005000000001000           FACT00125                                                                            
DD19301234567   MARCOMERINOMARCO MERINO VIZCATA                    CONSTRUCCION                  2020111720210215000000000018900000000000000000000001000              REC024                                                                            
DD19301234567   MANUELMARIAMANUEL MARIA ROCA                       PAGO JULIO                    2020111720210215000000000075600000000000002000000075600              REC025                                                                            
DD19301234567    LUCIAASMATLUCIA ASMAT                             REGULARIZACION MORA           2020111720210215000000000032700000000000000000000032700              REC026                                                                            
DD19301234567       ABC0123PRIMERA CUOTA                           TERRENOS                      2020111720210215000000000000100000000000000000010000000                                                                                                
DD19301234567       ABC0124INICIAL CONVENIO TR 124                 TERRENOS                      2020111720242/4/000000000000100000000000002000010000000                                                                                                
DD19301234567       ABC0125INICIAL CONVENIO TR 125                 TERRENOS                      2020111720242/4/000000000000100000000000000000010000000                                                                                                
DD19301234567       ABC0126NUEVO CONVENIO                          TERRENOS                      2020111720202/3/000000000000100000000000000000010000000                                                                                                
