CC19109398127CUNIVERSIDAD NACIONAL FEDERICO VILLARREAL20210701000004761000000249331800R000000                                                                                                                                                             
DD1910939812700002019310144BRICENO CABRAL ROSS                     DOCTORADO EN ADMINISTRACION   2021070520210724000000000055600000000000240000000000000                                                                                                
DD1910939812700002019310144BRICENO CABRAL ROSS                     DOCTORADO EN ADMINISTRACION   2021080120210831000000000060000000000000000000000000000                                                                                                
DD1910939812700002019310144BRICENO CABRAL ROSS                     DOCTORADO EN ADMINISTRACION   2021090120210930000000000060000000000000000000000000000                                                                                                
DD1910939812700002019310144BRICENO CABRAL ROSS                     DOCTORADO EN ADMINISTRACION   2021100120211030000000000060000000000000000000000000000                                                                                                
DD1910939812700002019310144BRICENO CABRAL ROSS                     DOCTORADO EN ADMINISTRACION   2021110120211130000000000060000000000000000000000000000                                                                                                
DD1910939812700002019310153CISNEROS MARAVI MARIA ANA               DOCTORADO EN ADMINISTRACION   2021070520210724000000000055600000000000240000000000000                                                                                                
DD1910939812700002019310153CISNEROS MARAVI MARIA ANA               DOCTORADO EN ADMINISTRACION   2021080120210831000000000060000000000000000000000000000                                                                                                
DD1910939812700002019310153CISNEROS MARAVI MARIA ANA               DOCTORADO EN ADMINISTRACION   2021090120210930000000000060000000000000000000000000000                                                                                                
DD1910939812700002019310153CISNEROS MARAVI MARIA ANA               DOCTORADO EN ADMINISTRACION   2021100120211030000000000060000000000000000000000000000                                                                                                
DD1910939812700002019310153CISNEROS MARAVI MARIA ANA               DOCTORADO EN ADMINISTRACION   2021110120211130000000000060000000000000000000000000000                                                                                                
DD1910939812700002019310171DARRIGO MACAVILCA VICTOR GUILLERMO      DOCTORADO EN ADMINISTRACION   2021070520210724000000000055600000000000000000000000000                                                                                                
DD1910939812700002019310171DARRIGO MACAVILCA VICTOR GUILLERMO      DOCTORADO EN ADMINISTRACION   2021080120210831000000000060000000000000000000000000000                                                                                                
DD1910939812700002019310171DARRIGO MACAVILCA VICTOR GUILLERMO      DOCTORADO EN ADMINISTRACION   2021090120210930000000000060000000000000000000000000000                                                                                                
DD1910939812700002019310171DARRIGO MACAVILCA VICTOR GUILLERMO      DOCTORADO EN ADMINISTRACION   2021100120211030000000000060000000000000000000000000000                                                                                                
DD1910939812700002019310171DARRIGO MACAVILCA VICTOR GUILLERMO      DOCTORADO EN ADMINISTRACION   2021110120211130000000000060000000000000000000000000000                                                                                                
DD1910939812700002019310206HURTADO OLIVA JOSE                      DOCTORADO EN ADMINISTRACION   2021070520210724000000000055600000000000060000000000000                                                                                                
DD1910939812700002019310206HURTADO OLIVA JOSE                      DOCTORADO EN ADMINISTRACION   2021080120210831000000000060000000000000000000000000000                                                                                                
DD1910939812700002019310206HURTADO OLIVA JOSE                      DOCTORADO EN ADMINISTRACION   2021090120210930000000000060000000000000000000000000000                                                                                                
DD1910939812700002019310206HURTADO OLIVA JOSE                      DOCTORADO EN ADMINISTRACION   2021100120211030000000000060000000000000000000000000000                                                                                                
DD1910939812700002019310206HURTADO OLIVA JOSE                      DOCTORADO EN ADMINISTRACION   2021110120211130000000000060000000000000000000000000000                                                                                                
DD1910939812700002019310269REYES MANDUJANO RUBEN DARIO             DOCTORADO EN ADMINISTRACION   2021070520210724000000000055600000000000240000000000000                                                                                                
DD1910939812700002019310269REYES MANDUJANO RUBEN DARIO             DOCTORADO EN ADMINISTRACION   2021080120210831000000000060000000000000000000000000000                                                                                                
DD1910939812700002019310269REYES MANDUJANO RUBEN DARIO             DOCTORADO EN ADMINISTRACION   2021090120210930000000000060000000000000000000000000000                                                                                                
DD1910939812700002019310269REYES MANDUJANO RUBEN DARIO             DOCTORADO EN ADMINISTRACION   2021100120211030000000000060000000000000000000000000000                                                                                                
DD1910939812700002019310269REYES MANDUJANO RUBEN DARIO             DOCTORADO EN ADMINISTRACION   2021110120211130000000000060000000000000000000000000000                                                                                                
DD1910939812700002019310278RIVERA ALPACA ALFONSO JOSE              DOCTORADO EN ADMINISTRACION   2021070520210724000000000043100000000000225000000000000                                                                                                
DD1910939812700002019310278RIVERA ALPACA ALFONSO JOSE              DOCTORADO EN ADMINISTRACION   2021080120210831000000000056250000000000000000000000000                                                                                                
DD1910939812700002019310278RIVERA ALPACA ALFONSO JOSE              DOCTORADO EN ADMINISTRACION   2021090120210930000000000056250000000000000000000000000                                                                                                
DD1910939812700002019310278RIVERA ALPACA ALFONSO JOSE              DOCTORADO EN ADMINISTRACION   2021100120211030000000000056250000000000000000000000000                                                                                                
DD1910939812700002019310278RIVERA ALPACA ALFONSO JOSE              DOCTORADO EN ADMINISTRACION   2021110120211130000000000056250000000000000000000000000                                                                                                
DD1910939812700002019310287SUAREZ GOYONECHE JUAN JOSE              DOCTORADO EN ADMINISTRACION   2021070520210724000000000055600000000000000000000000000                                                                                                
DD1910939812700002019310287SUAREZ GOYONECHE JUAN JOSE              DOCTORADO EN ADMINISTRACION   2021080120210831000000000060000000000000000000000000000                                                                                                
DD1910939812700002019310287SUAREZ GOYONECHE JUAN JOSE              DOCTORADO EN ADMINISTRACION   2021090120210930000000000060000000000000000000000000000                                                                                                
DD1910939812700002019310287SUAREZ GOYONECHE JUAN JOSE              DOCTORADO EN ADMINISTRACION   2021100120211030000000000060000000000000000000000000000                                                                                                
DD1910939812700002019310287SUAREZ GOYONECHE JUAN JOSE              DOCTORADO EN ADMINISTRACION   2021110120211130000000000060000000000000000000000000000                                                                                                
DD1910939812700002019311016CASTILLO BELLIDO CLAUDIO JAVIER         DOCTORADO EN ADMINISTRACION   2021070520210724000000000055600000000000240000000000000                                                                                                
DD1910939812700002019311016CASTILLO BELLIDO CLAUDIO JAVIER         DOCTORADO EN ADMINISTRACION   2021080120210831000000000060000000000000000000000000000                                                                                                
DD1910939812700002019311016CASTILLO BELLIDO CLAUDIO JAVIER         DOCTORADO EN ADMINISTRACION   2021090120210930000000000060000000000000000000000000000                                                                                                
DD1910939812700002019311016CASTILLO BELLIDO CLAUDIO JAVIER         DOCTORADO EN ADMINISTRACION   2021100120211030000000000060000000000000000000000000000                                                                                                
DD1910939812700002019311016CASTILLO BELLIDO CLAUDIO JAVIER         DOCTORADO EN ADMINISTRACION   2021110120211130000000000060000000000000000000000000000                                                                                                
DD1910939812700002019311034ESCOBAR GARCIA JOSE LUIS                DOCTORADO EN ADMINISTRACION   2021070520210724000000000055600000000000000000000000000                                                                                                
DD1910939812700002019311034ESCOBAR GARCIA JOSE LUIS                DOCTORADO EN ADMINISTRACION   2021080120210831000000000060000000000000000000000000000                                                                                                
DD1910939812700002019311034ESCOBAR GARCIA JOSE LUIS                DOCTORADO EN ADMINISTRACION   2021090120210930000000000060000000000000000000000000000                                                                                                
DD1910939812700002019311034ESCOBAR GARCIA JOSE LUIS                DOCTORADO EN ADMINISTRACION   2021100120211030000000000060000000000000000000000000000                                                                                                
DD1910939812700002019311034ESCOBAR GARCIA JOSE LUIS                DOCTORADO EN ADMINISTRACION   2021110120211130000000000060000000000000000000000000000                                                                                                
DD1910939812700002019311382MOTTA REYES SONIA ESTHER                DOCTORADO EN ADMINISTRACION   2021070520210724000000000055600000000000000000000000000                                                                                                
DD1910939812700002019311382MOTTA REYES SONIA ESTHER                DOCTORADO EN ADMINISTRACION   2021080120210831000000000060000000000000000000000000000                                                                                                
DD1910939812700002019311382MOTTA REYES SONIA ESTHER                DOCTORADO EN ADMINISTRACION   2021090120210930000000000060000000000000000000000000000                                                                                                
DD1910939812700002019311382MOTTA REYES SONIA ESTHER                DOCTORADO EN ADMINISTRACION   2021100120211030000000000060000000000000000000000000000                                                                                                
DD1910939812700002019311382MOTTA REYES SONIA ESTHER                DOCTORADO EN ADMINISTRACION   2021110120211130000000000060000000000000000000000000000                                                                                                
DD1910939812700002019318521CABALLERO VALLEJO RICHARD ORLANDO       DOCTORADO EN ADMINISTRACION   2021070520210724000000000055600000000000000000000000000                                                                                                
DD1910939812700002019318521CABALLERO VALLEJO RICHARD ORLANDO       DOCTORADO EN ADMINISTRACION   2021080120210831000000000060000000000000000000000000000                                                                                                
DD1910939812700002019318521CABALLERO VALLEJO RICHARD ORLANDO       DOCTORADO EN ADMINISTRACION   2021090120210930000000000060000000000000000000000000000                                                                                                
DD1910939812700002019318521CABALLERO VALLEJO RICHARD ORLANDO       DOCTORADO EN ADMINISTRACION   2021100120211030000000000060000000000000000000000000000                                                                                                
DD1910939812700002019318521CABALLERO VALLEJO RICHARD ORLANDO       DOCTORADO EN ADMINISTRACION   2021110120211130000000000060000000000000000000000000000                                                                                                
DD1910939812700002019320497MENDEZ LAOS GLADYS MARINA               DOCTORADO EN ADMINISTRACION   2021070520210724000000000055600000000000000000000000000                                                                                                
DD1910939812700002019320497MENDEZ LAOS GLADYS MARINA               DOCTORADO EN ADMINISTRACION   2021080120210831000000000060000000000000000000000000000                                                                                                
DD1910939812700002019320497MENDEZ LAOS GLADYS MARINA               DOCTORADO EN ADMINISTRACION   2021090120210930000000000060000000000000000000000000000                                                                                                
DD1910939812700002019320497MENDEZ LAOS GLADYS MARINA               DOCTORADO EN ADMINISTRACION   2021100120211030000000000060000000000000000000000000000                                                                                                
DD1910939812700002019320497MENDEZ LAOS GLADYS MARINA               DOCTORADO EN ADMINISTRACION   2021110120211130000000000060000000000000000000000000000                                                                                                
DD1910939812700002019320817PAZ BARBOZA SUZETTY KAREN               DOCTORADO EN ADMINISTRACION   2021070520210724000000000055600000000000240000000000000                                                                                                
DD1910939812700002019320817PAZ BARBOZA SUZETTY KAREN               DOCTORADO EN ADMINISTRACION   2021080120210831000000000060000000000000000000000000000                                                                                                
DD1910939812700002019320817PAZ BARBOZA SUZETTY KAREN               DOCTORADO EN ADMINISTRACION   2021090120210930000000000060000000000000000000000000000                                                                                                
DD1910939812700002019320817PAZ BARBOZA SUZETTY KAREN               DOCTORADO EN ADMINISTRACION   2021100120211030000000000060000000000000000000000000000                                                                                                
DD1910939812700002019320817PAZ BARBOZA SUZETTY KAREN               DOCTORADO EN ADMINISTRACION   2021110120211130000000000060000000000000000000000000000                                                                                                
DD1910939812700002019322722RAMIREZ OCAS JAIME ANTONIO              DOCTORADO EN ADMINISTRACION   2021070520210724000000000055600000000000000000000000000                                                                                                
DD1910939812700002019322722RAMIREZ OCAS JAIME ANTONIO              DOCTORADO EN ADMINISTRACION   2021080120210831000000000060000000000000000000000000000                                                                                                
DD1910939812700002019322722RAMIREZ OCAS JAIME ANTONIO              DOCTORADO EN ADMINISTRACION   2021090120210930000000000060000000000000000000000000000                                                                                                
DD1910939812700002019322722RAMIREZ OCAS JAIME ANTONIO              DOCTORADO EN ADMINISTRACION   2021100120211030000000000060000000000000000000000000000                                                                                                
DD1910939812700002019322722RAMIREZ OCAS JAIME ANTONIO              DOCTORADO EN ADMINISTRACION   2021110120211130000000000060000000000000000000000000000                                                                                                
DD1910939812700002019322927RUIZ VASQUEZ JOHANN REINER              DOCTORADO EN ADMINISTRACION   2021070520210724000000000055600000000000000000000000000                                                                                                
DD1910939812700002019322927RUIZ VASQUEZ JOHANN REINER              DOCTORADO EN ADMINISTRACION   2021080120210831000000000060000000000000000000000000000                                                                                                
DD1910939812700002019322927RUIZ VASQUEZ JOHANN REINER              DOCTORADO EN ADMINISTRACION   2021090120210930000000000060000000000000000000000000000                                                                                                
DD1910939812700002019322927RUIZ VASQUEZ JOHANN REINER              DOCTORADO EN ADMINISTRACION   2021100120211030000000000060000000000000000000000000000                                                                                                
DD1910939812700002019322927RUIZ VASQUEZ JOHANN REINER              DOCTORADO EN ADMINISTRACION   2021110120211130000000000060000000000000000000000000000                                                                                                
DD1910939812700002019323176MASCELLARO LUPERDI GIANCARLO ENZO PASCQ DOCTORADO EN ADMINISTRACION   2021070520210724000000000055600000000000000000000000000                                                                                                
DD1910939812700002019323176MASCELLARO LUPERDI GIANCARLO ENZO PASCQ DOCTORADO EN ADMINISTRACION   2021080120210831000000000060000000000000000000000000000                                                                                                
DD1910939812700002019323176MASCELLARO LUPERDI GIANCARLO ENZO PASCQ DOCTORADO EN ADMINISTRACION   2021090120210930000000000060000000000000000000000000000                                                                                                
DD1910939812700002019323176MASCELLARO LUPERDI GIANCARLO ENZO PASCQ DOCTORADO EN ADMINISTRACION   2021100120211030000000000060000000000000000000000000000                                                                                                
DD1910939812700002019323176MASCELLARO LUPERDI GIANCARLO ENZO PASCQ DOCTORADO EN ADMINISTRACION   2021110120211130000000000060000000000000000000000000000                                                                                                
DD1910939812700002019920021CORONADO SALAZAR JOSE AUGUSTO           DOCTORADO EN ADMINISTRACION   2021070520210724000000000055600000000000000000000000000                                                                                                
DD1910939812700002019920021CORONADO SALAZAR JOSE AUGUSTO           DOCTORADO EN ADMINISTRACION   2021080120210831000000000060000000000000000000000000000                                                                                                
DD1910939812700002019920021CORONADO SALAZAR JOSE AUGUSTO           DOCTORADO EN ADMINISTRACION   2021090120210930000000000060000000000000000000000000000                                                                                                
DD1910939812700002019920021CORONADO SALAZAR JOSE AUGUSTO           DOCTORADO EN ADMINISTRACION   2021100120211030000000000060000000000000000000000000000                                                                                                
DD1910939812700002019920021CORONADO SALAZAR JOSE AUGUSTO           DOCTORADO EN ADMINISTRACION   2021110120211130000000000060000000000000000000000000000                                                                                                
DD1910939812700002020000017BALLARTA RAMOS ROSALIO ORLANDO          DOCTORADO EN ADMINISTRACION   2021070520210724000000000055600000000000000000000000000                                                                                                
DD1910939812700002020000017BALLARTA RAMOS ROSALIO ORLANDO          DOCTORADO EN ADMINISTRACION   2021080120210831000000000060000000000000000000000000000                                                                                                
DD1910939812700002020000017BALLARTA RAMOS ROSALIO ORLANDO          DOCTORADO EN ADMINISTRACION   2021090120210930000000000060000000000000000000000000000                                                                                                
DD1910939812700002020000017BALLARTA RAMOS ROSALIO ORLANDO          DOCTORADO EN ADMINISTRACION   2021100120211030000000000060000000000000000000000000000                                                                                                
DD1910939812700002020000017BALLARTA RAMOS ROSALIO ORLANDO          DOCTORADO EN ADMINISTRACION   2021110120211130000000000060000000000000000000000000000                                                                                                
DD1910939812700002020000024BERROCAL CHILLCCE JUDITH                DOCTORADO EN ADMINISTRACION   2021070520210724000000000055600000000000000000000000000                                                                                                
DD1910939812700002020000024BERROCAL CHILLCCE JUDITH                DOCTORADO EN ADMINISTRACION   2021080120210831000000000060000000000000000000000000000                                                                                                
DD1910939812700002020000024BERROCAL CHILLCCE JUDITH                DOCTORADO EN ADMINISTRACION   2021090120210930000000000060000000000000000000000000000                                                                                                
DD1910939812700002020000024BERROCAL CHILLCCE JUDITH                DOCTORADO EN ADMINISTRACION   2021100120211030000000000060000000000000000000000000000                                                                                                
DD1910939812700002020000024BERROCAL CHILLCCE JUDITH                DOCTORADO EN ADMINISTRACION   2021110120211130000000000060000000000000000000000000000                                                                                                
DD1910939812700002020000031CAMPOS HIDALGO ANDREA                   DOCTORADO EN ADMINISTRACION   2021070520210724000000000055600000000000000000000000000                                                                                                
DD1910939812700002020000031CAMPOS HIDALGO ANDREA                   DOCTORADO EN ADMINISTRACION   2021080120210831000000000060000000000000000000000000000                                                                                                
DD1910939812700002020000031CAMPOS HIDALGO ANDREA                   DOCTORADO EN ADMINISTRACION   2021090120210930000000000060000000000000000000000000000                                                                                                
DD1910939812700002020000031CAMPOS HIDALGO ANDREA                   DOCTORADO EN ADMINISTRACION   2021100120211030000000000060000000000000000000000000000                                                                                                
DD1910939812700002020000031CAMPOS HIDALGO ANDREA                   DOCTORADO EN ADMINISTRACION   2021110120211130000000000060000000000000000000000000000                                                                                                
DD1910939812700002020000048CANDIA PIMENTEL MERY                    DOCTORADO EN ADMINISTRACION   2021070520210724000000000055600000000000000000000000000                                                                                                
DD1910939812700002020000048CANDIA PIMENTEL MERY                    DOCTORADO EN ADMINISTRACION   2021080120210831000000000060000000000000000000000000000                                                                                                
DD1910939812700002020000048CANDIA PIMENTEL MERY                    DOCTORADO EN ADMINISTRACION   2021090120210930000000000060000000000000000000000000000                                                                                                
DD1910939812700002020000048CANDIA PIMENTEL MERY                    DOCTORADO EN ADMINISTRACION   2021100120211030000000000060000000000000000000000000000                                                                                                
DD1910939812700002020000048CANDIA PIMENTEL MERY                    DOCTORADO EN ADMINISTRACION   2021110120211130000000000060000000000000000000000000000                                                                                                
DD1910939812700002020000054CARBAJAL CCOICCA WALTER ROLANDO         DOCTORADO EN ADMINISTRACION   2021070520210724000000000055600000000000000000000000000                                                                                                
DD1910939812700002020000054CARBAJAL CCOICCA WALTER ROLANDO         DOCTORADO EN ADMINISTRACION   2021080120210831000000000060000000000000000000000000000                                                                                                
DD1910939812700002020000054CARBAJAL CCOICCA WALTER ROLANDO         DOCTORADO EN ADMINISTRACION   2021090120210930000000000060000000000000000000000000000                                                                                                
DD1910939812700002020000054CARBAJAL CCOICCA WALTER ROLANDO         DOCTORADO EN ADMINISTRACION   2021100120211030000000000060000000000000000000000000000                                                                                                
DD1910939812700002020000054CARBAJAL CCOICCA WALTER ROLANDO         DOCTORADO EN ADMINISTRACION   2021110120211130000000000060000000000000000000000000000                                                                                                
DD1910939812700002020000068HERNANDEZ CELIS VALLEJOS JULIA PAOLA    DOCTORADO EN ADMINISTRACION   2021070520210724000000000055600000000000000000000000000                                                                                                
DD1910939812700002020000068HERNANDEZ CELIS VALLEJOS JULIA PAOLA    DOCTORADO EN ADMINISTRACION   2021080120210831000000000060000000000000000000000000000                                                                                                
DD1910939812700002020000068HERNANDEZ CELIS VALLEJOS JULIA PAOLA    DOCTORADO EN ADMINISTRACION   2021090120210930000000000060000000000000000000000000000                                                                                                
DD1910939812700002020000068HERNANDEZ CELIS VALLEJOS JULIA PAOLA    DOCTORADO EN ADMINISTRACION   2021100120211030000000000060000000000000000000000000000                                                                                                
DD1910939812700002020000068HERNANDEZ CELIS VALLEJOS JULIA PAOLA    DOCTORADO EN ADMINISTRACION   2021110120211130000000000060000000000000000000000000000                                                                                                
DD1910939812700002020000071MEDINA SALGADO ANTONIO BARTOLOME        DOCTORADO EN ADMINISTRACION   2021070520210724000000000055600000000000000000000000000                                                                                                
DD1910939812700002020000071MEDINA SALGADO ANTONIO BARTOLOME        DOCTORADO EN ADMINISTRACION   2021080120210831000000000060000000000000000000000000000                                                                                                
DD1910939812700002020000071MEDINA SALGADO ANTONIO BARTOLOME        DOCTORADO EN ADMINISTRACION   2021090120210930000000000060000000000000000000000000000                                                                                                
DD1910939812700002020000071MEDINA SALGADO ANTONIO BARTOLOME        DOCTORADO EN ADMINISTRACION   2021100120211030000000000060000000000000000000000000000                                                                                                
DD1910939812700002020000071MEDINA SALGADO ANTONIO BARTOLOME        DOCTORADO EN ADMINISTRACION   2021110120211130000000000060000000000000000000000000000                                                                                                
DD1910939812700002020000095MONRROY INCIO JAVIER ELEAZAR            DOCTORADO EN ADMINISTRACION   2021070520210724000000000055600000000000000000000000000                                                                                                
DD1910939812700002020000095MONRROY INCIO JAVIER ELEAZAR            DOCTORADO EN ADMINISTRACION   2021080120210831000000000060000000000000000000000000000                                                                                                
DD1910939812700002020000095MONRROY INCIO JAVIER ELEAZAR            DOCTORADO EN ADMINISTRACION   2021090120210930000000000060000000000000000000000000000                                                                                                
DD1910939812700002020000095MONRROY INCIO JAVIER ELEAZAR            DOCTORADO EN ADMINISTRACION   2021100120211030000000000060000000000000000000000000000                                                                                                
DD1910939812700002020000095MONRROY INCIO JAVIER ELEAZAR            DOCTORADO EN ADMINISTRACION   2021110120211130000000000060000000000000000000000000000                                                                                                
DD1910939812700002020000102NORIEGA GUTIERREZ ADRIANA ESMERALDA     DOCTORADO EN ADMINISTRACION   2021070520210724000000000055600000000000060000000000000                                                                                                
DD1910939812700002020000102NORIEGA GUTIERREZ ADRIANA ESMERALDA     DOCTORADO EN ADMINISTRACION   2021080120210831000000000060000000000000000000000000000                                                                                                
DD1910939812700002020000102NORIEGA GUTIERREZ ADRIANA ESMERALDA     DOCTORADO EN ADMINISTRACION   2021090120210930000000000060000000000000000000000000000                                                                                                
DD1910939812700002020000102NORIEGA GUTIERREZ ADRIANA ESMERALDA     DOCTORADO EN ADMINISTRACION   2021100120211030000000000060000000000000000000000000000                                                                                                
DD1910939812700002020000102NORIEGA GUTIERREZ ADRIANA ESMERALDA     DOCTORADO EN ADMINISTRACION   2021110120211130000000000060000000000000000000000000000                                                                                                
DD1910939812700002020000111ORELLANA FLORES YANE PATRICIA           DOCTORADO EN ADMINISTRACION   2021070520210724000000000055600000000000000000000000000                                                                                                
DD1910939812700002020000111ORELLANA FLORES YANE PATRICIA           DOCTORADO EN ADMINISTRACION   2021080120210831000000000060000000000000000000000000000                                                                                                
DD1910939812700002020000111ORELLANA FLORES YANE PATRICIA           DOCTORADO EN ADMINISTRACION   2021090120210930000000000060000000000000000000000000000                                                                                                
DD1910939812700002020000111ORELLANA FLORES YANE PATRICIA           DOCTORADO EN ADMINISTRACION   2021100120211030000000000060000000000000000000000000000                                                                                                
DD1910939812700002020000111ORELLANA FLORES YANE PATRICIA           DOCTORADO EN ADMINISTRACION   2021110120211130000000000060000000000000000000000000000                                                                                                
DD1910939812700002020000129PASCO LOPEZ LUIS ALBERTO                DOCTORADO EN ADMINISTRACION   2021070520210724000000000055600000000000060000000000000                                                                                                
DD1910939812700002020000129PASCO LOPEZ LUIS ALBERTO                DOCTORADO EN ADMINISTRACION   2021080120210831000000000060000000000000000000000000000                                                                                                
DD1910939812700002020000129PASCO LOPEZ LUIS ALBERTO                DOCTORADO EN ADMINISTRACION   2021090120210930000000000060000000000000000000000000000                                                                                                
DD1910939812700002020000129PASCO LOPEZ LUIS ALBERTO                DOCTORADO EN ADMINISTRACION   2021100120211030000000000060000000000000000000000000000                                                                                                
DD1910939812700002020000129PASCO LOPEZ LUIS ALBERTO                DOCTORADO EN ADMINISTRACION   2021110120211130000000000060000000000000000000000000000                                                                                                
DD1910939812700002020000132RAMOS IMAN ADRIANO JUAN                 DOCTORADO EN ADMINISTRACION   2021070520210724000000000055600000000000000000000000000                                                                                                
DD1910939812700002020000132RAMOS IMAN ADRIANO JUAN                 DOCTORADO EN ADMINISTRACION   2021080120210831000000000060000000000000000000000000000                                                                                                
DD1910939812700002020000132RAMOS IMAN ADRIANO JUAN                 DOCTORADO EN ADMINISTRACION   2021090120210930000000000060000000000000000000000000000                                                                                                
DD1910939812700002020000132RAMOS IMAN ADRIANO JUAN                 DOCTORADO EN ADMINISTRACION   2021100120211030000000000060000000000000000000000000000                                                                                                
DD1910939812700002020000132RAMOS IMAN ADRIANO JUAN                 DOCTORADO EN ADMINISTRACION   2021110120211130000000000060000000000000000000000000000                                                                                                
DD1910939812700002020000143RIMACHE VELASQUE TEODOR                 DOCTORADO EN ADMINISTRACION   2021070520210724000000000055600000000000000000000000000                                                                                                
DD1910939812700002020000143RIMACHE VELASQUE TEODOR                 DOCTORADO EN ADMINISTRACION   2021080120210831000000000060000000000000000000000000000                                                                                                
DD1910939812700002020000143RIMACHE VELASQUE TEODOR                 DOCTORADO EN ADMINISTRACION   2021090120210930000000000060000000000000000000000000000                                                                                                
DD1910939812700002020000143RIMACHE VELASQUE TEODOR                 DOCTORADO EN ADMINISTRACION   2021100120211030000000000060000000000000000000000000000                                                                                                
DD1910939812700002020000143RIMACHE VELASQUE TEODOR                 DOCTORADO EN ADMINISTRACION   2021110120211130000000000060000000000000000000000000000                                                                                                
DD1910939812700002020000151SALAS CANALES HUGO JESUS                DOCTORADO EN ADMINISTRACION   2021070520210724000000000055600000000000000000000000000                                                                                                
DD1910939812700002020000151SALAS CANALES HUGO JESUS                DOCTORADO EN ADMINISTRACION   2021080120210831000000000060000000000000000000000000000                                                                                                
DD1910939812700002020000151SALAS CANALES HUGO JESUS                DOCTORADO EN ADMINISTRACION   2021090120210930000000000060000000000000000000000000000                                                                                                
DD1910939812700002020000151SALAS CANALES HUGO JESUS                DOCTORADO EN ADMINISTRACION   2021100120211030000000000060000000000000000000000000000                                                                                                
DD1910939812700002020000151SALAS CANALES HUGO JESUS                DOCTORADO EN ADMINISTRACION   2021110120211130000000000060000000000000000000000000000                                                                                                
DD1910939812700002020000163YARIN ACHACHAGUA ANWAR JULIO            DOCTORADO EN ADMINISTRACION   2021070520210724000000000055600000000000000000000000000                                                                                                
DD1910939812700002020000163YARIN ACHACHAGUA ANWAR JULIO            DOCTORADO EN ADMINISTRACION   2021080120210831000000000060000000000000000000000000000                                                                                                
DD1910939812700002020000163YARIN ACHACHAGUA ANWAR JULIO            DOCTORADO EN ADMINISTRACION   2021090120210930000000000060000000000000000000000000000                                                                                                
DD1910939812700002020000163YARIN ACHACHAGUA ANWAR JULIO            DOCTORADO EN ADMINISTRACION   2021100120211030000000000060000000000000000000000000000                                                                                                
DD1910939812700002020000163YARIN ACHACHAGUA ANWAR JULIO            DOCTORADO EN ADMINISTRACION   2021110120211130000000000060000000000000000000000000000                                                                                                
DD1910939812700002020000177YAULI TORRES CLAUDIA SALOME             DOCTORADO EN ADMINISTRACION   2021070520210724000000000055600000000000060000000000000                                                                                                
DD1910939812700002020000177YAULI TORRES CLAUDIA SALOME             DOCTORADO EN ADMINISTRACION   2021080120210831000000000060000000000000000000000000000                                                                                                
DD1910939812700002020000177YAULI TORRES CLAUDIA SALOME             DOCTORADO EN ADMINISTRACION   2021090120210930000000000060000000000000000000000000000                                                                                                
DD1910939812700002020000177YAULI TORRES CLAUDIA SALOME             DOCTORADO EN ADMINISTRACION   2021100120211030000000000060000000000000000000000000000                                                                                                
DD1910939812700002020000177YAULI TORRES CLAUDIA SALOME             DOCTORADO EN ADMINISTRACION   2021110120211130000000000060000000000000000000000000000                                                                                                
DD1910939812700002020000896VALENCIA SARAYA ERIKA MANUELA           DOCTORADO EN ADMINISTRACION   2021070520210724000000000055600000000000060000000000000                                                                                                
DD1910939812700002020000896VALENCIA SARAYA ERIKA MANUELA           DOCTORADO EN ADMINISTRACION   2021080120210831000000000060000000000000000000000000000                                                                                                
DD1910939812700002020000896VALENCIA SARAYA ERIKA MANUELA           DOCTORADO EN ADMINISTRACION   2021090120210930000000000060000000000000000000000000000                                                                                                
DD1910939812700002020000896VALENCIA SARAYA ERIKA MANUELA           DOCTORADO EN ADMINISTRACION   2021100120211030000000000060000000000000000000000000000                                                                                                
DD1910939812700002020000896VALENCIA SARAYA ERIKA MANUELA           DOCTORADO EN ADMINISTRACION   2021110120211130000000000060000000000000000000000000000                                                                                                
DD1910939812700002019310296TENORIO ALANYA FRANZ MARTIN             DOCTORADO EN CONTABILIDAD     2021070520210724000000000055600000000000240000000000000                                                                                                
DD1910939812700002019310296TENORIO ALANYA FRANZ MARTIN             DOCTORADO EN CONTABILIDAD     2021080120210831000000000060000000000000000000000000000                                                                                                
DD1910939812700002019310296TENORIO ALANYA FRANZ MARTIN             DOCTORADO EN CONTABILIDAD     2021090120210930000000000060000000000000000000000000000                                                                                                
DD1910939812700002019310296TENORIO ALANYA FRANZ MARTIN             DOCTORADO EN CONTABILIDAD     2021100120211030000000000060000000000000000000000000000                                                                                                
DD1910939812700002019310296TENORIO ALANYA FRANZ MARTIN             DOCTORADO EN CONTABILIDAD     2021110120211130000000000060000000000000000000000000000                                                                                                
DD1910939812700002019317533FONSECA SANCHEZ OSCAR LUIS              DOCTORADO EN CONTABILIDAD     2021070520210724000000000030600000000000000000000000000                                                                                                
DD1910939812700002019317533FONSECA SANCHEZ OSCAR LUIS              DOCTORADO EN CONTABILIDAD     2021080120210831000000000037500000000000000000000000000                                                                                                
DD1910939812700002019317533FONSECA SANCHEZ OSCAR LUIS              DOCTORADO EN CONTABILIDAD     2021090120210930000000000037500000000000000000000000000                                                                                                
DD1910939812700002019317533FONSECA SANCHEZ OSCAR LUIS              DOCTORADO EN CONTABILIDAD     2021100120211030000000000037500000000000000000000000000                                                                                                
DD1910939812700002019317533FONSECA SANCHEZ OSCAR LUIS              DOCTORADO EN CONTABILIDAD     2021110120211130000000000037500000000000000000000000000                                                                                                
DD1910939812700002019317569MALQUI BLANCO HILDA                     DOCTORADO EN CONTABILIDAD     2021070520210724000000000055600000000000240000000000000                                                                                                
DD1910939812700002019317569MALQUI BLANCO HILDA                     DOCTORADO EN CONTABILIDAD     2021080120210831000000000060000000000000000000000000000                                                                                                
DD1910939812700002019317569MALQUI BLANCO HILDA                     DOCTORADO EN CONTABILIDAD     2021090120210930000000000060000000000000000000000000000                                                                                                
DD1910939812700002019317569MALQUI BLANCO HILDA                     DOCTORADO EN CONTABILIDAD     2021100120211030000000000060000000000000000000000000000                                                                                                
DD1910939812700002019317569MALQUI BLANCO HILDA                     DOCTORADO EN CONTABILIDAD     2021110120211130000000000060000000000000000000000000000                                                                                                
DD1910939812700002019318753MORVELY CHALCO MARITZA                  DOCTORADO EN CONTABILIDAD     2021070520210724000000000055600000000000240000000000000                                                                                                
DD1910939812700002019318753MORVELY CHALCO MARITZA                  DOCTORADO EN CONTABILIDAD     2021080120210831000000000060000000000000000000000000000                                                                                                
DD1910939812700002019318753MORVELY CHALCO MARITZA                  DOCTORADO EN CONTABILIDAD     2021090120210930000000000060000000000000000000000000000                                                                                                
DD1910939812700002019318753MORVELY CHALCO MARITZA                  DOCTORADO EN CONTABILIDAD     2021100120211030000000000060000000000000000000000000000                                                                                                
DD1910939812700002019318753MORVELY CHALCO MARITZA                  DOCTORADO EN CONTABILIDAD     2021110120211130000000000060000000000000000000000000000                                                                                                
DD1910939812700002019320764YUMBATO ROJAS WILSON ASCENCIO           DOCTORADO EN CONTABILIDAD     2021070520210724000000000055600000000000240000000000000                                                                                                
DD1910939812700002019320764YUMBATO ROJAS WILSON ASCENCIO           DOCTORADO EN CONTABILIDAD     2021080120210831000000000060000000000000000000000000000                                                                                                
DD1910939812700002019320764YUMBATO ROJAS WILSON ASCENCIO           DOCTORADO EN CONTABILIDAD     2021090120210930000000000060000000000000000000000000000                                                                                                
DD1910939812700002019320764YUMBATO ROJAS WILSON ASCENCIO           DOCTORADO EN CONTABILIDAD     2021100120211030000000000060000000000000000000000000000                                                                                                
DD1910939812700002019320764YUMBATO ROJAS WILSON ASCENCIO           DOCTORADO EN CONTABILIDAD     2021110120211130000000000060000000000000000000000000000                                                                                                
DD1910939812700002019322366PADILLA VENTO TERESA DE JESUS           DOCTORADO EN CONTABILIDAD     2021070520210724000000000055600000000000240000000000000                                                                                                
DD1910939812700002019322366PADILLA VENTO TERESA DE JESUS           DOCTORADO EN CONTABILIDAD     2021080120210831000000000060000000000000000000000000000                                                                                                
DD1910939812700002019322366PADILLA VENTO TERESA DE JESUS           DOCTORADO EN CONTABILIDAD     2021090120210930000000000060000000000000000000000000000                                                                                                
DD1910939812700002019322366PADILLA VENTO TERESA DE JESUS           DOCTORADO EN CONTABILIDAD     2021100120211030000000000060000000000000000000000000000                                                                                                
DD1910939812700002019322366PADILLA VENTO TERESA DE JESUS           DOCTORADO EN CONTABILIDAD     2021110120211130000000000060000000000000000000000000000                                                                                                
DD1910939812700002019322428HUAMAN OJEDA RAFAEL MARTIN              DOCTORADO EN CONTABILIDAD     2021070520210724000000000055600000000000240000000000000                                                                                                
DD1910939812700002019322428HUAMAN OJEDA RAFAEL MARTIN              DOCTORADO EN CONTABILIDAD     2021080120210831000000000060000000000000000000000000000                                                                                                
DD1910939812700002019322428HUAMAN OJEDA RAFAEL MARTIN              DOCTORADO EN CONTABILIDAD     2021090120210930000000000060000000000000000000000000000                                                                                                
DD1910939812700002019322428HUAMAN OJEDA RAFAEL MARTIN              DOCTORADO EN CONTABILIDAD     2021100120211030000000000060000000000000000000000000000                                                                                                
DD1910939812700002019322428HUAMAN OJEDA RAFAEL MARTIN              DOCTORADO EN CONTABILIDAD     2021110120211130000000000060000000000000000000000000000                                                                                                
DD1910939812700002019322936AGUILAR CULQUICONDOR JUAN CARLOS        DOCTORADO EN CONTABILIDAD     2021070520210724000000000055600000000000000000000000000                                                                                                
DD1910939812700002019322936AGUILAR CULQUICONDOR JUAN CARLOS        DOCTORADO EN CONTABILIDAD     2021080120210831000000000060000000000000000000000000000                                                                                                
DD1910939812700002019322936AGUILAR CULQUICONDOR JUAN CARLOS        DOCTORADO EN CONTABILIDAD     2021090120210930000000000060000000000000000000000000000                                                                                                
DD1910939812700002019322936AGUILAR CULQUICONDOR JUAN CARLOS        DOCTORADO EN CONTABILIDAD     2021100120211030000000000060000000000000000000000000000                                                                                                
DD1910939812700002019322936AGUILAR CULQUICONDOR JUAN CARLOS        DOCTORADO EN CONTABILIDAD     2021110120211130000000000060000000000000000000000000000                                                                                                
DD1910939812700002019310028ABANTO CHAVEZ ELI                       DOCTORADO EN DERECHO          2021070520210724000000000043100000000000000000000000000                                                                                                
DD1910939812700002019310028ABANTO CHAVEZ ELI                       DOCTORADO EN DERECHO          2021080120210831000000000056250000000000000000000000000                                                                                                
DD1910939812700002019310028ABANTO CHAVEZ ELI                       DOCTORADO EN DERECHO          2021090120210930000000000056250000000000000000000000000                                                                                                
DD1910939812700002019310028ABANTO CHAVEZ ELI                       DOCTORADO EN DERECHO          2021100120211030000000000056250000000000000000000000000                                                                                                
DD1910939812700002019310028ABANTO CHAVEZ ELI                       DOCTORADO EN DERECHO          2021110120211130000000000056250000000000000000000000000                                                                                                
DD1910939812700002019310073BARCENA CARRANZA BRUNO ANGHELO          DOCTORADO EN DERECHO          2021070520210724000000000055600000000000000000000000000                                                                                                
DD1910939812700002019310073BARCENA CARRANZA BRUNO ANGHELO          DOCTORADO EN DERECHO          2021080120210831000000000060000000000000000000000000000                                                                                                
DD1910939812700002019310073BARCENA CARRANZA BRUNO ANGHELO          DOCTORADO EN DERECHO          2021090120210930000000000060000000000000000000000000000                                                                                                
DD1910939812700002019310073BARCENA CARRANZA BRUNO ANGHELO          DOCTORADO EN DERECHO          2021100120211030000000000060000000000000000000000000000                                                                                                
DD1910939812700002019310073BARCENA CARRANZA BRUNO ANGHELO          DOCTORADO EN DERECHO          2021110120211130000000000060000000000000000000000000000                                                                                                
DD1910939812700002019310108CHAVEZ ROJAS SADI ANTONIO               DOCTORADO EN DERECHO          2021070520210724000000000055600000000000000000000000000                                                                                                
DD1910939812700002019310108CHAVEZ ROJAS SADI ANTONIO               DOCTORADO EN DERECHO          2021080120210831000000000060000000000000000000000000000                                                                                                
DD1910939812700002019310108CHAVEZ ROJAS SADI ANTONIO               DOCTORADO EN DERECHO          2021090120210930000000000060000000000000000000000000000                                                                                                
DD1910939812700002019310108CHAVEZ ROJAS SADI ANTONIO               DOCTORADO EN DERECHO          2021100120211030000000000060000000000000000000000000000                                                                                                
DD1910939812700002019310108CHAVEZ ROJAS SADI ANTONIO               DOCTORADO EN DERECHO          2021110120211130000000000060000000000000000000000000000                                                                                                
DD1910939812700002019310117CUBAS MONTOYA ALEJANDRO                 DOCTORADO EN DERECHO          2021070520210724000000000055600000000000060000000000000                                                                                                
DD1910939812700002019310117CUBAS MONTOYA ALEJANDRO                 DOCTORADO EN DERECHO          2021080120210831000000000060000000000000000000000000000                                                                                                
DD1910939812700002019310117CUBAS MONTOYA ALEJANDRO                 DOCTORADO EN DERECHO          2021090120210930000000000060000000000000000000000000000                                                                                                
DD1910939812700002019310117CUBAS MONTOYA ALEJANDRO                 DOCTORADO EN DERECHO          2021100120211030000000000060000000000000000000000000000                                                                                                
DD1910939812700002019310117CUBAS MONTOYA ALEJANDRO                 DOCTORADO EN DERECHO          2021110120211130000000000060000000000000000000000000000                                                                                                
DD1910939812700002019310126GOMEZ HIJAR BELTRAN                     DOCTORADO EN DERECHO          2021070520210724000000000030600000000000000000000000000                                                                                                
DD1910939812700002019310126GOMEZ HIJAR BELTRAN                     DOCTORADO EN DERECHO          2021080120210831000000000037500000000000000000000000000                                                                                                
DD1910939812700002019310126GOMEZ HIJAR BELTRAN                     DOCTORADO EN DERECHO          2021090120210930000000000037500000000000000000000000000                                                                                                
DD1910939812700002019310126GOMEZ HIJAR BELTRAN                     DOCTORADO EN DERECHO          2021100120211030000000000037500000000000000000000000000                                                                                                
DD1910939812700002019310126GOMEZ HIJAR BELTRAN                     DOCTORADO EN DERECHO          2021110120211130000000000037500000000000000000000000000                                                                                                
DD1910939812700002019310198MAQUIN FIGUEROA LUIS FERNANDO           DOCTORADO EN DERECHO          2021070520210724000000000055600000000000000000000000000                                                                                                
DD1910939812700002019310198MAQUIN FIGUEROA LUIS FERNANDO           DOCTORADO EN DERECHO          2021080120210831000000000060000000000000000000000000000                                                                                                
DD1910939812700002019310198MAQUIN FIGUEROA LUIS FERNANDO           DOCTORADO EN DERECHO          2021090120210930000000000060000000000000000000000000000                                                                                                
DD1910939812700002019310198MAQUIN FIGUEROA LUIS FERNANDO           DOCTORADO EN DERECHO          2021100120211030000000000060000000000000000000000000000                                                                                                
DD1910939812700002019310198MAQUIN FIGUEROA LUIS FERNANDO           DOCTORADO EN DERECHO          2021110120211130000000000060000000000000000000000000000                                                                                                
DD1910939812700002019310215MARTINEZ PONCE WILLIAM                  DOCTORADO EN DERECHO          2021070520210724000000000055600000000000240000000000000                                                                                                
DD1910939812700002019310215MARTINEZ PONCE WILLIAM                  DOCTORADO EN DERECHO          2021080120210831000000000060000000000000000000000000000                                                                                                
DD1910939812700002019310215MARTINEZ PONCE WILLIAM                  DOCTORADO EN DERECHO          2021090120210930000000000060000000000000000000000000000                                                                                                
DD1910939812700002019310215MARTINEZ PONCE WILLIAM                  DOCTORADO EN DERECHO          2021100120211030000000000060000000000000000000000000000                                                                                                
DD1910939812700002019310215MARTINEZ PONCE WILLIAM                  DOCTORADO EN DERECHO          2021110120211130000000000060000000000000000000000000000                                                                                                
DD1910939812700002019310233MENDOZA GUZMAN ROBERTO LEONARDO         DOCTORADO EN DERECHO          2021070520210724000000000055600000000000000000000000000                                                                                                
DD1910939812700002019310233MENDOZA GUZMAN ROBERTO LEONARDO         DOCTORADO EN DERECHO          2021080120210831000000000060000000000000000000000000000                                                                                                
DD1910939812700002019310233MENDOZA GUZMAN ROBERTO LEONARDO         DOCTORADO EN DERECHO          2021090120210930000000000060000000000000000000000000000                                                                                                
DD1910939812700002019310233MENDOZA GUZMAN ROBERTO LEONARDO         DOCTORADO EN DERECHO          2021100120211030000000000060000000000000000000000000000                                                                                                
DD1910939812700002019310233MENDOZA GUZMAN ROBERTO LEONARDO         DOCTORADO EN DERECHO          2021110120211130000000000060000000000000000000000000000                                                                                                
DD1910939812700002019310251MORA SANCHEZ NECKANDER DIK              DOCTORADO EN DERECHO          2021070520210724000000000055600000000000300000000000000                                                                                                
DD1910939812700002019310251MORA SANCHEZ NECKANDER DIK              DOCTORADO EN DERECHO          2021080120210831000000000060000000000000000000000000000                                                                                                
DD1910939812700002019310251MORA SANCHEZ NECKANDER DIK              DOCTORADO EN DERECHO          2021090120210930000000000060000000000000000000000000000                                                                                                
DD1910939812700002019310251MORA SANCHEZ NECKANDER DIK              DOCTORADO EN DERECHO          2021100120211030000000000060000000000000000000000000000                                                                                                
DD1910939812700002019310251MORA SANCHEZ NECKANDER DIK              DOCTORADO EN DERECHO          2021110120211130000000000060000000000000000000000000000                                                                                                
DD1910939812700002019310304OCHOA PORTOCARRERO LOYDI JACQUELINE     DOCTORADO EN DERECHO          2021070520210724000000000055600000000000000000000000000                                                                                                
DD1910939812700002019310304OCHOA PORTOCARRERO LOYDI JACQUELINE     DOCTORADO EN DERECHO          2021080120210831000000000060000000000000000000000000000                                                                                                
DD1910939812700002019310304OCHOA PORTOCARRERO LOYDI JACQUELINE     DOCTORADO EN DERECHO          2021090120210930000000000060000000000000000000000000000                                                                                                
DD1910939812700002019310304OCHOA PORTOCARRERO LOYDI JACQUELINE     DOCTORADO EN DERECHO          2021100120211030000000000060000000000000000000000000000                                                                                                
DD1910939812700002019310304OCHOA PORTOCARRERO LOYDI JACQUELINE     DOCTORADO EN DERECHO          2021110120211130000000000060000000000000000000000000000                                                                                                
DD1910939812700002019310313PASCO DELGADO WILNER HERIBERTH          DOCTORADO EN DERECHO          2021070520210724000000000055600000000000240000000000000                                                                                                
DD1910939812700002019310313PASCO DELGADO WILNER HERIBERTH          DOCTORADO EN DERECHO          2021080120210831000000000060000000000000000000000000000                                                                                                
DD1910939812700002019310313PASCO DELGADO WILNER HERIBERTH          DOCTORADO EN DERECHO          2021090120210930000000000060000000000000000000000000000                                                                                                
DD1910939812700002019310313PASCO DELGADO WILNER HERIBERTH          DOCTORADO EN DERECHO          2021100120211030000000000060000000000000000000000000000                                                                                                
DD1910939812700002019310313PASCO DELGADO WILNER HERIBERTH          DOCTORADO EN DERECHO          2021110120211130000000000060000000000000000000000000000                                                                                                
DD1910939812700002019310349PONCE BRIONES CARLOS ALBERTO            DOCTORADO EN DERECHO          2021070520210724000000000055600000000000000000000000000                                                                                                
DD1910939812700002019310349PONCE BRIONES CARLOS ALBERTO            DOCTORADO EN DERECHO          2021080120210831000000000060000000000000000000000000000                                                                                                
DD1910939812700002019310349PONCE BRIONES CARLOS ALBERTO            DOCTORADO EN DERECHO          2021090120210930000000000060000000000000000000000000000                                                                                                
DD1910939812700002019310349PONCE BRIONES CARLOS ALBERTO            DOCTORADO EN DERECHO          2021100120211030000000000060000000000000000000000000000                                                                                                
DD1910939812700002019310349PONCE BRIONES CARLOS ALBERTO            DOCTORADO EN DERECHO          2021110120211130000000000060000000000000000000000000000                                                                                                
DD1910939812700002019311916SEGURA VALVERDE MILAGROS EVA            DOCTORADO EN DERECHO          2021070520210724000000000055600000000000000000000000000                                                                                                
DD1910939812700002019311916SEGURA VALVERDE MILAGROS EVA            DOCTORADO EN DERECHO          2021080120210831000000000060000000000000000000000000000                                                                                                
DD1910939812700002019311916SEGURA VALVERDE MILAGROS EVA            DOCTORADO EN DERECHO          2021090120210930000000000060000000000000000000000000000                                                                                                
DD1910939812700002019311916SEGURA VALVERDE MILAGROS EVA            DOCTORADO EN DERECHO          2021100120211030000000000060000000000000000000000000000                                                                                                
DD1910939812700002019311916SEGURA VALVERDE MILAGROS EVA            DOCTORADO EN DERECHO          2021110120211130000000000060000000000000000000000000000                                                                                                
DD1910939812700002019311943CORTEZ MENDEZ CARMEN ESTEFANIA          DOCTORADO EN DERECHO          2021070520210724000000000055600000000000240000000000000                                                                                                
DD1910939812700002019311943CORTEZ MENDEZ CARMEN ESTEFANIA          DOCTORADO EN DERECHO          2021080120210831000000000060000000000000000000000000000                                                                                                
DD1910939812700002019311943CORTEZ MENDEZ CARMEN ESTEFANIA          DOCTORADO EN DERECHO          2021090120210930000000000060000000000000000000000000000                                                                                                
DD1910939812700002019311943CORTEZ MENDEZ CARMEN ESTEFANIA          DOCTORADO EN DERECHO          2021100120211030000000000060000000000000000000000000000                                                                                                
DD1910939812700002019311943CORTEZ MENDEZ CARMEN ESTEFANIA          DOCTORADO EN DERECHO          2021110120211130000000000060000000000000000000000000000                                                                                                
DD1910939812700002019313349TASAYCO HUAPAYA MONICA EMYLENE          DOCTORADO EN DERECHO          2021070520210724000000000055600000000000000000000000000                                                                                                
DD1910939812700002019313349TASAYCO HUAPAYA MONICA EMYLENE          DOCTORADO EN DERECHO          2021080120210831000000000060000000000000000000000000000                                                                                                
DD1910939812700002019313349TASAYCO HUAPAYA MONICA EMYLENE          DOCTORADO EN DERECHO          2021090120210930000000000060000000000000000000000000000                                                                                                
DD1910939812700002019313349TASAYCO HUAPAYA MONICA EMYLENE          DOCTORADO EN DERECHO          2021100120211030000000000060000000000000000000000000000                                                                                                
DD1910939812700002019313349TASAYCO HUAPAYA MONICA EMYLENE          DOCTORADO EN DERECHO          2021110120211130000000000060000000000000000000000000000                                                                                                
DD1910939812700002019317587CABALLERO MONTERO BEATRIZ HORTENCIA     DOCTORADO EN DERECHO          2021070520210724000000000030600000000000150000000000000                                                                                                
DD1910939812700002019317587CABALLERO MONTERO BEATRIZ HORTENCIA     DOCTORADO EN DERECHO          2021080120210831000000000037500000000000000000000000000                                                                                                
DD1910939812700002019317587CABALLERO MONTERO BEATRIZ HORTENCIA     DOCTORADO EN DERECHO          2021090120210930000000000037500000000000000000000000000                                                                                                
DD1910939812700002019317587CABALLERO MONTERO BEATRIZ HORTENCIA     DOCTORADO EN DERECHO          2021100120211030000000000037500000000000000000000000000                                                                                                
DD1910939812700002019317587CABALLERO MONTERO BEATRIZ HORTENCIA     DOCTORADO EN DERECHO          2021110120211130000000000037500000000000000000000000000                                                                                                
DD1910939812700002019317596CASTRO Y CESPEDES ENRIQUE               DOCTORADO EN DERECHO          2021070520210724000000000055600000000000060000000000000                                                                                                
DD1910939812700002019317596CASTRO Y CESPEDES ENRIQUE               DOCTORADO EN DERECHO          2021080120210831000000000060000000000000000000000000000                                                                                                
DD1910939812700002019317596CASTRO Y CESPEDES ENRIQUE               DOCTORADO EN DERECHO          2021090120210930000000000060000000000000000000000000000                                                                                                
DD1910939812700002019317596CASTRO Y CESPEDES ENRIQUE               DOCTORADO EN DERECHO          2021100120211030000000000060000000000000000000000000000                                                                                                
DD1910939812700002019317596CASTRO Y CESPEDES ENRIQUE               DOCTORADO EN DERECHO          2021110120211130000000000060000000000000000000000000000                                                                                                
DD1910939812700002019317604CENTENO PARADA JOSE MIJAIL              DOCTORADO EN DERECHO          2021070520210724000000000043100000000000225000000000000                                                                                                
DD1910939812700002019317604CENTENO PARADA JOSE MIJAIL              DOCTORADO EN DERECHO          2021080120210831000000000056250000000000000000000000000                                                                                                
DD1910939812700002019317604CENTENO PARADA JOSE MIJAIL              DOCTORADO EN DERECHO          2021090120210930000000000056250000000000000000000000000                                                                                                
DD1910939812700002019317604CENTENO PARADA JOSE MIJAIL              DOCTORADO EN DERECHO          2021100120211030000000000056250000000000000000000000000                                                                                                
DD1910939812700002019317604CENTENO PARADA JOSE MIJAIL              DOCTORADO EN DERECHO          2021110120211130000000000056250000000000000000000000000                                                                                                
DD1910939812700002019317613CHAVEZ PALHUA JAIME                     DOCTORADO EN DERECHO          2021070520210724000000000043100000000000225000000000000                                                                                                
DD1910939812700002019317613CHAVEZ PALHUA JAIME                     DOCTORADO EN DERECHO          2021080120210831000000000056250000000000000000000000000                                                                                                
DD1910939812700002019317613CHAVEZ PALHUA JAIME                     DOCTORADO EN DERECHO          2021090120210930000000000056250000000000000000000000000                                                                                                
DD1910939812700002019317613CHAVEZ PALHUA JAIME                     DOCTORADO EN DERECHO          2021100120211030000000000056250000000000000000000000000                                                                                                
DD1910939812700002019317613CHAVEZ PALHUA JAIME                     DOCTORADO EN DERECHO          2021110120211130000000000056250000000000000000000000000                                                                                                
DD1910939812700002019317622GALLEGOS ALMIRON WASHINGTON             DOCTORADO EN DERECHO          2021070520210724000000000055600000000000000000000000000                                                                                                
DD1910939812700002019317622GALLEGOS ALMIRON WASHINGTON             DOCTORADO EN DERECHO          2021080120210831000000000060000000000000000000000000000                                                                                                
DD1910939812700002019317622GALLEGOS ALMIRON WASHINGTON             DOCTORADO EN DERECHO          2021090120210930000000000060000000000000000000000000000                                                                                                
DD1910939812700002019317622GALLEGOS ALMIRON WASHINGTON             DOCTORADO EN DERECHO          2021100120211030000000000060000000000000000000000000000                                                                                                
DD1910939812700002019317622GALLEGOS ALMIRON WASHINGTON             DOCTORADO EN DERECHO          2021110120211130000000000060000000000000000000000000000                                                                                                
DD1910939812700002019317631GONZALES MENDOZA JOSE DARIO             DOCTORADO EN DERECHO          2021070520210724000000000043100000000000225000000000000                                                                                                
DD1910939812700002019317631GONZALES MENDOZA JOSE DARIO             DOCTORADO EN DERECHO          2021080120210831000000000056250000000000000000000000000                                                                                                
DD1910939812700002019317631GONZALES MENDOZA JOSE DARIO             DOCTORADO EN DERECHO          2021090120210930000000000056250000000000000000000000000                                                                                                
DD1910939812700002019317631GONZALES MENDOZA JOSE DARIO             DOCTORADO EN DERECHO          2021100120211030000000000056250000000000000000000000000                                                                                                
DD1910939812700002019317631GONZALES MENDOZA JOSE DARIO             DOCTORADO EN DERECHO          2021110120211130000000000056250000000000000000000000000                                                                                                
DD1910939812700002019317658LARA BENDEZU ELISEO ELOY                DOCTORADO EN DERECHO          2021070520210724000000000043100000000000000000000000000                                                                                                
DD1910939812700002019317658LARA BENDEZU ELISEO ELOY                DOCTORADO EN DERECHO          2021080120210831000000000056250000000000000000000000000                                                                                                
DD1910939812700002019317658LARA BENDEZU ELISEO ELOY                DOCTORADO EN DERECHO          2021090120210930000000000056250000000000000000000000000                                                                                                
DD1910939812700002019317658LARA BENDEZU ELISEO ELOY                DOCTORADO EN DERECHO          2021100120211030000000000056250000000000000000000000000                                                                                                
DD1910939812700002019317658LARA BENDEZU ELISEO ELOY                DOCTORADO EN DERECHO          2021110120211130000000000056250000000000000000000000000                                                                                                
DD1910939812700002019317667LARUTA QUISPE DORA MARLUI               DOCTORADO EN DERECHO          2021070520210724000000000055600000000000240000000000000                                                                                                
DD1910939812700002019317667LARUTA QUISPE DORA MARLUI               DOCTORADO EN DERECHO          2021080120210831000000000060000000000000000000000000000                                                                                                
DD1910939812700002019317667LARUTA QUISPE DORA MARLUI               DOCTORADO EN DERECHO          2021090120210930000000000060000000000000000000000000000                                                                                                
DD1910939812700002019317667LARUTA QUISPE DORA MARLUI               DOCTORADO EN DERECHO          2021100120211030000000000060000000000000000000000000000                                                                                                
DD1910939812700002019317667LARUTA QUISPE DORA MARLUI               DOCTORADO EN DERECHO          2021110120211130000000000060000000000000000000000000000                                                                                                
DD1910939812700002019317685ORCCOTTOMA ANTAY ELIZABETH              DOCTORADO EN DERECHO          2021070520210724000000000055600000000000060000000000000                                                                                                
DD1910939812700002019317685ORCCOTTOMA ANTAY ELIZABETH              DOCTORADO EN DERECHO          2021080120210831000000000060000000000000000000000000000                                                                                                
DD1910939812700002019317685ORCCOTTOMA ANTAY ELIZABETH              DOCTORADO EN DERECHO          2021090120210930000000000060000000000000000000000000000                                                                                                
DD1910939812700002019317685ORCCOTTOMA ANTAY ELIZABETH              DOCTORADO EN DERECHO          2021100120211030000000000060000000000000000000000000000                                                                                                
DD1910939812700002019317685ORCCOTTOMA ANTAY ELIZABETH              DOCTORADO EN DERECHO          2021110120211130000000000060000000000000000000000000000                                                                                                
DD1910939812700002019317702ROMERO URIOL VICTOR ALBERTO             DOCTORADO EN DERECHO          2021070520210724000000000055600000000000240000000000000                                                                                                
DD1910939812700002019317702ROMERO URIOL VICTOR ALBERTO             DOCTORADO EN DERECHO          2021080120210831000000000060000000000000000000000000000                                                                                                
DD1910939812700002019317702ROMERO URIOL VICTOR ALBERTO             DOCTORADO EN DERECHO          2021090120210930000000000060000000000000000000000000000                                                                                                
DD1910939812700002019317702ROMERO URIOL VICTOR ALBERTO             DOCTORADO EN DERECHO          2021100120211030000000000060000000000000000000000000000                                                                                                
DD1910939812700002019317702ROMERO URIOL VICTOR ALBERTO             DOCTORADO EN DERECHO          2021110120211130000000000060000000000000000000000000000                                                                                                
DD1910939812700002019317765VEGA MAUTINO MANUEL RAUL                DOCTORADO EN DERECHO          2021070520210724000000000055600000000000000000000000000                                                                                                
DD1910939812700002019317765VEGA MAUTINO MANUEL RAUL                DOCTORADO EN DERECHO          2021080120210831000000000060000000000000000000000000000                                                                                                
DD1910939812700002019317765VEGA MAUTINO MANUEL RAUL                DOCTORADO EN DERECHO          2021090120210930000000000060000000000000000000000000000                                                                                                
DD1910939812700002019317765VEGA MAUTINO MANUEL RAUL                DOCTORADO EN DERECHO          2021100120211030000000000060000000000000000000000000000                                                                                                
DD1910939812700002019317765VEGA MAUTINO MANUEL RAUL                DOCTORADO EN DERECHO          2021110120211130000000000060000000000000000000000000000                                                                                                
DD1910939812700002019317818CASTILLO RODRIGUEZ JULIO FERNANDO       DOCTORADO EN DERECHO          2021070520210724000000000055600000000000180000000000000                                                                                                
DD1910939812700002019317818CASTILLO RODRIGUEZ JULIO FERNANDO       DOCTORADO EN DERECHO          2021080120210831000000000060000000000000000000000000000                                                                                                
DD1910939812700002019317818CASTILLO RODRIGUEZ JULIO FERNANDO       DOCTORADO EN DERECHO          2021090120210930000000000060000000000000000000000000000                                                                                                
DD1910939812700002019317818CASTILLO RODRIGUEZ JULIO FERNANDO       DOCTORADO EN DERECHO          2021100120211030000000000060000000000000000000000000000                                                                                                
DD1910939812700002019317818CASTILLO RODRIGUEZ JULIO FERNANDO       DOCTORADO EN DERECHO          2021110120211130000000000060000000000000000000000000000                                                                                                
DD1910939812700002019318717ORTEGA RONDON NADIA HILDA               DOCTORADO EN DERECHO          2021070520210724000000000055600000000000240000000000000                                                                                                
DD1910939812700002019318717ORTEGA RONDON NADIA HILDA               DOCTORADO EN DERECHO          2021080120210831000000000060000000000000000000000000000                                                                                                
DD1910939812700002019318717ORTEGA RONDON NADIA HILDA               DOCTORADO EN DERECHO          2021090120210930000000000060000000000000000000000000000                                                                                                
DD1910939812700002019318717ORTEGA RONDON NADIA HILDA               DOCTORADO EN DERECHO          2021100120211030000000000060000000000000000000000000000                                                                                                
DD1910939812700002019318717ORTEGA RONDON NADIA HILDA               DOCTORADO EN DERECHO          2021110120211130000000000060000000000000000000000000000                                                                                                
DD1910939812700002019318735HERRERA VALQUI GISSELA ORTENCIA         DOCTORADO EN DERECHO          2021070520210724000000000055600000000000000000000000000                                                                                                
DD1910939812700002019318735HERRERA VALQUI GISSELA ORTENCIA         DOCTORADO EN DERECHO          2021080120210831000000000060000000000000000000000000000                                                                                                
DD1910939812700002019318735HERRERA VALQUI GISSELA ORTENCIA         DOCTORADO EN DERECHO          2021090120210930000000000060000000000000000000000000000                                                                                                
DD1910939812700002019318735HERRERA VALQUI GISSELA ORTENCIA         DOCTORADO EN DERECHO          2021100120211030000000000060000000000000000000000000000                                                                                                
DD1910939812700002019318735HERRERA VALQUI GISSELA ORTENCIA         DOCTORADO EN DERECHO          2021110120211130000000000060000000000000000000000000000                                                                                                
DD1910939812700002019319732CABALLERO MONTERO VERA ESPERANZA        DOCTORADO EN DERECHO          2021070520210724000000000055600000000000480000000000000                                                                                                
DD1910939812700002019319732CABALLERO MONTERO VERA ESPERANZA        DOCTORADO EN DERECHO          2021080120210831000000000060000000000000000000000000000                                                                                                
DD1910939812700002019319732CABALLERO MONTERO VERA ESPERANZA        DOCTORADO EN DERECHO          2021090120210930000000000060000000000000000000000000000                                                                                                
DD1910939812700002019319732CABALLERO MONTERO VERA ESPERANZA        DOCTORADO EN DERECHO          2021100120211030000000000060000000000000000000000000000                                                                                                
DD1910939812700002019319732CABALLERO MONTERO VERA ESPERANZA        DOCTORADO EN DERECHO          2021110120211130000000000060000000000000000000000000000                                                                                                
DD1910939812700002019319901PAUCARHUANCA RONDINEL ANA               DOCTORADO EN DERECHO          2021070520210724000000000055600000000000000000000000000                                                                                                
DD1910939812700002019319901PAUCARHUANCA RONDINEL ANA               DOCTORADO EN DERECHO          2021080120210831000000000060000000000000000000000000000                                                                                                
DD1910939812700002019319901PAUCARHUANCA RONDINEL ANA               DOCTORADO EN DERECHO          2021090120210930000000000060000000000000000000000000000                                                                                                
DD1910939812700002019319901PAUCARHUANCA RONDINEL ANA               DOCTORADO EN DERECHO          2021100120211030000000000060000000000000000000000000000                                                                                                
DD1910939812700002019319901PAUCARHUANCA RONDINEL ANA               DOCTORADO EN DERECHO          2021110120211130000000000060000000000000000000000000000                                                                                                
DD1910939812700002019320104SANJINEZ SALAZAR JOVIAN VALENTIN        DOCTORADO EN DERECHO          2021070520210724000000000055600000000000240000000000000                                                                                                
DD1910939812700002019320104SANJINEZ SALAZAR JOVIAN VALENTIN        DOCTORADO EN DERECHO          2021080120210831000000000060000000000000000000000000000                                                                                                
DD1910939812700002019320104SANJINEZ SALAZAR JOVIAN VALENTIN        DOCTORADO EN DERECHO          2021090120210930000000000060000000000000000000000000000                                                                                                
DD1910939812700002019320104SANJINEZ SALAZAR JOVIAN VALENTIN        DOCTORADO EN DERECHO          2021100120211030000000000060000000000000000000000000000                                                                                                
DD1910939812700002019320104SANJINEZ SALAZAR JOVIAN VALENTIN        DOCTORADO EN DERECHO          2021110120211130000000000060000000000000000000000000000                                                                                                
DD1910939812700002019320113BAUTISTA MERINO ALBERTO JUAN            DOCTORADO EN DERECHO          2021070520210724000000000055600000000000240000000000000                                                                                                
DD1910939812700002019320113BAUTISTA MERINO ALBERTO JUAN            DOCTORADO EN DERECHO          2021080120210831000000000060000000000000000000000000000                                                                                                
DD1910939812700002019320113BAUTISTA MERINO ALBERTO JUAN            DOCTORADO EN DERECHO          2021090120210930000000000060000000000000000000000000000                                                                                                
DD1910939812700002019320113BAUTISTA MERINO ALBERTO JUAN            DOCTORADO EN DERECHO          2021100120211030000000000060000000000000000000000000000                                                                                                
DD1910939812700002019320113BAUTISTA MERINO ALBERTO JUAN            DOCTORADO EN DERECHO          2021110120211130000000000060000000000000000000000000000                                                                                                
DD1910939812700002019320149TARAZONA SIGUAS MARIA ADRIANA           DOCTORADO EN DERECHO          2021070520210724000000000055600000000000037500000000000                                                                                                
DD1910939812700002019320149TARAZONA SIGUAS MARIA ADRIANA           DOCTORADO EN DERECHO          2021080120210831000000000060000000000000000000000000000                                                                                                
DD1910939812700002019320149TARAZONA SIGUAS MARIA ADRIANA           DOCTORADO EN DERECHO          2021090120210930000000000060000000000000000000000000000                                                                                                
DD1910939812700002019320149TARAZONA SIGUAS MARIA ADRIANA           DOCTORADO EN DERECHO          2021100120211030000000000060000000000000000000000000000                                                                                                
DD1910939812700002019320149TARAZONA SIGUAS MARIA ADRIANA           DOCTORADO EN DERECHO          2021110120211130000000000060000000000000000000000000000                                                                                                
DD1910939812700002019320158GUTIERREZ AUCCASI ADOLFO RAUL           DOCTORADO EN DERECHO          2021070520210724000000000055600000000000000000000000000                                                                                                
DD1910939812700002019320158GUTIERREZ AUCCASI ADOLFO RAUL           DOCTORADO EN DERECHO          2021080120210831000000000060000000000000000000000000000                                                                                                
DD1910939812700002019320158GUTIERREZ AUCCASI ADOLFO RAUL           DOCTORADO EN DERECHO          2021090120210930000000000060000000000000000000000000000                                                                                                
DD1910939812700002019320158GUTIERREZ AUCCASI ADOLFO RAUL           DOCTORADO EN DERECHO          2021100120211030000000000060000000000000000000000000000                                                                                                
DD1910939812700002019320158GUTIERREZ AUCCASI ADOLFO RAUL           DOCTORADO EN DERECHO          2021110120211130000000000060000000000000000000000000000                                                                                                
DD1910939812700002019320595RIVERA PATINO JUANA DORINDA             DOCTORADO EN DERECHO          2021070520210724000000000055600000000000240000000000000                                                                                                
DD1910939812700002019320595RIVERA PATINO JUANA DORINDA             DOCTORADO EN DERECHO          2021080120210831000000000060000000000000000000000000000                                                                                                
DD1910939812700002019320595RIVERA PATINO JUANA DORINDA             DOCTORADO EN DERECHO          2021090120210930000000000060000000000000000000000000000                                                                                                
DD1910939812700002019320595RIVERA PATINO JUANA DORINDA             DOCTORADO EN DERECHO          2021100120211030000000000060000000000000000000000000000                                                                                                
DD1910939812700002019320595RIVERA PATINO JUANA DORINDA             DOCTORADO EN DERECHO          2021110120211130000000000060000000000000000000000000000                                                                                                
DD1910939812700002019321039LUNA PADILLA ANA LILIANA                DOCTORADO EN DERECHO          2021070520210724000000000055600000000000000000000000000                                                                                                
DD1910939812700002019321039LUNA PADILLA ANA LILIANA                DOCTORADO EN DERECHO          2021080120210831000000000060000000000000000000000000000                                                                                                
DD1910939812700002019321039LUNA PADILLA ANA LILIANA                DOCTORADO EN DERECHO          2021090120210930000000000060000000000000000000000000000                                                                                                
DD1910939812700002019321039LUNA PADILLA ANA LILIANA                DOCTORADO EN DERECHO          2021100120211030000000000060000000000000000000000000000                                                                                                
DD1910939812700002019321039LUNA PADILLA ANA LILIANA                DOCTORADO EN DERECHO          2021110120211130000000000060000000000000000000000000000                                                                                                
DD1910939812700002019321137VIZARRETA ZEVALLOS RONALD EDUARDO       DOCTORADO EN DERECHO          2021070520210724000000000043100000000000000000000000000                                                                                                
DD1910939812700002019321137VIZARRETA ZEVALLOS RONALD EDUARDO       DOCTORADO EN DERECHO          2021080120210831000000000056250000000000000000000000000                                                                                                
DD1910939812700002019321137VIZARRETA ZEVALLOS RONALD EDUARDO       DOCTORADO EN DERECHO          2021090120210930000000000056250000000000000000000000000                                                                                                
DD1910939812700002019321137VIZARRETA ZEVALLOS RONALD EDUARDO       DOCTORADO EN DERECHO          2021100120211030000000000056250000000000000000000000000                                                                                                
DD1910939812700002019321137VIZARRETA ZEVALLOS RONALD EDUARDO       DOCTORADO EN DERECHO          2021110120211130000000000056250000000000000000000000000                                                                                                
