CC12311234567CUNFV                                    2020100900000000300000003001,500R                                                                                                                                                                   
DD1231123456700002020000001CARLOS FRANCO DEL CARPIO                INFORMACION DE RETORNO        202009252020093000000001000,500000000000000000000000000                                                                                                
DD1231123456700002020000001CARLOS FRANCO DEL CARPIO                INFORMACION DE RETORNO        202010012020103000000001000,500000000000000000000000000                                                                                                
DD1231123456700002020000001CARLOS FRANCO DEL CARPIO                INFORMACION DE RETORNO        202009242020113000000001000,500000000000000000000000000                                                                                                
